{
  "contractName": "CastLots",
  "abi": [
    {
      "inputs": [
        {
          "internalType": "string[]",
          "name": "teams",
          "type": "string[]"
        }
      ],
      "stateMutability": "nonpayable",
      "type": "constructor"
    },
    {
      "inputs": [],
      "name": "admin",
      "outputs": [
        {
          "internalType": "address",
          "name": "",
          "type": "address"
        }
      ],
      "stateMutability": "view",
      "type": "function"
    },
    {
      "inputs": [
        {
          "internalType": "uint256",
          "name": "",
          "type": "uint256"
        }
      ],
      "name": "initial_teams",
      "outputs": [
        {
          "internalType": "string",
          "name": "",
          "type": "string"
        }
      ],
      "stateMutability": "view",
      "type": "function"
    },
    {
      "inputs": [],
      "name": "rand_available",
      "outputs": [
        {
          "internalType": "bool",
          "name": "",
          "type": "bool"
        }
      ],
      "stateMutability": "view",
      "type": "function"
    },
    {
      "inputs": [],
      "name": "randomResult",
      "outputs": [
        {
          "internalType": "uint256",
          "name": "",
          "type": "uint256"
        }
      ],
      "stateMutability": "view",
      "type": "function"
    },
    {
      "inputs": [
        {
          "internalType": "bytes32",
          "name": "requestId",
          "type": "bytes32"
        },
        {
          "internalType": "uint256",
          "name": "randomness",
          "type": "uint256"
        }
      ],
      "name": "rawFulfillRandomness",
      "outputs": [],
      "stateMutability": "nonpayable",
      "type": "function"
    },
    {
      "inputs": [],
      "name": "getRandomNumber",
      "outputs": [
        {
          "internalType": "bytes32",
          "name": "requestId",
          "type": "bytes32"
        }
      ],
      "stateMutability": "nonpayable",
      "type": "function"
    },
    {
      "inputs": [],
      "name": "generateGroups",
      "outputs": [
        {
          "internalType": "string[]",
          "name": "final_teams",
          "type": "string[]"
        }
      ],
      "stateMutability": "nonpayable",
      "type": "function"
    },
    {
      "inputs": [],
      "name": "getAllInitialTeams",
      "outputs": [
        {
          "internalType": "string[]",
          "name": "",
          "type": "string[]"
        }
      ],
      "stateMutability": "view",
      "type": "function"
    }
  ],
  "bytecode": "0x60c06040526000600460006101000a81548160ff0219169083151502179055503480156200002c57600080fd5b5060405162001b3838038062001b3883398181016040528101906200005291906200040f565b73b3dccb4cf7a26f6cf6b120cf5a73875b7bbc655b7301be23585060835e02b77ef475b0cc51aa1e07098173ffffffffffffffffffffffffffffffffffffffff1660a08173ffffffffffffffffffffffffffffffffffffffff1660601b815250508073ffffffffffffffffffffffffffffffffffffffff1660808173ffffffffffffffffffffffffffffffffffffffff1660601b81525050505033600160006101000a81548173ffffffffffffffffffffffffffffffffffffffff021916908373ffffffffffffffffffffffffffffffffffffffff16021790555080600290805190602001906200014592919062000186565b507f2ed0feb3e7fd2022120aa84fab1945545a9f2ffc9076fd6156fa96eaff4c131160001b60058190555067016345785d8a000060068190555050620005b4565b828054828255906000526020600020908101928215620001da579160200282015b82811115620001d9578251829080519060200190620001c8929190620001ed565b5091602001919060010190620001a7565b5b509050620001e991906200027e565b5090565b828054620001fb9062000520565b90600052602060002090601f0160209004810192826200021f57600085556200026b565b82601f106200023a57805160ff19168380011785556200026b565b828001600101855582156200026b579182015b828111156200026a5782518255916020019190600101906200024d565b5b5090506200027a9190620002a6565b5090565b5b80821115620002a25760008181620002989190620002c5565b506001016200027f565b5090565b5b80821115620002c1576000816000905550600101620002a7565b5090565b508054620002d39062000520565b6000825580601f10620002e7575062000308565b601f016020900490600052602060002090810190620003079190620002a6565b5b50565b6000620003226200031c8462000488565b62000454565b9050808382526020820190508260005b858110156200036657815185016200034b8882620003e2565b84526020840193506020830192505060018101905062000332565b5050509392505050565b6000620003876200038184620004b7565b62000454565b905082815260208101848484011115620003a057600080fd5b620003ad848285620004ea565b509392505050565b600082601f830112620003c757600080fd5b8151620003d98482602086016200030b565b91505092915050565b600082601f830112620003f457600080fd5b81516200040684826020860162000370565b91505092915050565b6000602082840312156200042257600080fd5b600082015167ffffffffffffffff8111156200043d57600080fd5b6200044b84828501620003b5565b91505092915050565b6000604051905081810181811067ffffffffffffffff821117156200047e576200047d62000585565b5b8060405250919050565b600067ffffffffffffffff821115620004a657620004a562000585565b5b602082029050602081019050919050565b600067ffffffffffffffff821115620004d557620004d462000585565b5b601f19601f8301169050602081019050919050565b60005b838110156200050a578082015181840152602081019050620004ed565b838111156200051a576000848401525b50505050565b600060028204905060018216806200053957607f821691505b6020821081141562000550576200054f62000556565b5b50919050565b7f4e487b7100000000000000000000000000000000000000000000000000000000600052602260045260246000fd5b7f4e487b7100000000000000000000000000000000000000000000000000000000600052604160045260246000fd5b60805160601c60a05160601c61154a620005ee6000396000818161028101526108a10152600081816103ce0152610865015261154a6000f3fe608060405234801561001057600080fd5b50600436106100885760003560e01c8063aa70dac21161005b578063aa70dac214610103578063dbdff2c114610133578063dcf7385614610151578063f851a4401461016f57610088565b80632d37d2f41461008d57806342619f66146100ab5780634e633993146100c957806394985ddd146100e7575b600080fd5b61009561018d565b6040516100a29190611092565b60405180910390f35b6100b3610266565b6040516100c091906111ba565b60405180910390f35b6100d161026c565b6040516100de91906110b4565b60405180910390f35b61010160048036038101906100fc9190610ce2565b61027f565b005b61011d60048036038101906101189190610d1e565b61031b565b60405161012a9190611158565b60405180910390f35b61013b6103c7565b60405161014891906110cf565b60405180910390f35b6101596104c9565b6040516101669190611092565b60405180910390f35b610177610815565b6040516101849190611039565b60405180910390f35b60606002805480602002602001604051908101604052809291908181526020016000905b8282101561025d5783829060005260206000200180546101d090611371565b80601f01602080910402602001604051908101604052809291908181526020018280546101fc90611371565b80156102495780601f1061021e57610100808354040283529160200191610249565b820191906000526020600020905b81548152906001019060200180831161022c57829003601f168201915b5050505050815260200190600101906101b1565b50505050905090565b60035481565b600460009054906101000a900460ff1681565b7f000000000000000000000000000000000000000000000000000000000000000073ffffffffffffffffffffffffffffffffffffffff163373ffffffffffffffffffffffffffffffffffffffff161461030d576040517f08c379a00000000000000000000000000000000000000000000000000000000081526004016103049061119a565b60405180910390fd5b610317828261083b565b5050565b6002818154811061032b57600080fd5b90600052602060002001600091509050805461034690611371565b80601f016020809104026020016040519081016040528092919081815260200182805461037290611371565b80156103bf5780601f10610394576101008083540402835291602001916103bf565b820191906000526020600020905b8154815290600101906020018083116103a257829003601f168201915b505050505081565b60006006547f000000000000000000000000000000000000000000000000000000000000000073ffffffffffffffffffffffffffffffffffffffff166370a08231306040518263ffffffff1660e01b81526004016104259190611039565b60206040518083038186803b15801561043d57600080fd5b505afa158015610451573d6000803e3d6000fd5b505050506040513d601f19601f820116820180604052508101906104759190610d47565b10156104b6576040517f08c379a00000000000000000000000000000000000000000000000000000000081526004016104ad9061117a565b60405180910390fd5b6104c4600554600654610861565b905090565b6060600160009054906101000a900473ffffffffffffffffffffffffffffffffffffffff1673ffffffffffffffffffffffffffffffffffffffff163373ffffffffffffffffffffffffffffffffffffffff161461052557600080fd5b60011515600460009054906101000a900460ff1615151461054557600080fd5b60028054905067ffffffffffffffff81111561058a577f4e487b7100000000000000000000000000000000000000000000000000000000600052604160045260246000fd5b6040519080825280602002602001820160405280156105bd57816020015b60608152602001906001900390816105a85790505b509050600080600280549050905060005b818110156107f4576106c5600354600260016002805490506105f091906112b8565b81548110610627577f4e487b7100000000000000000000000000000000000000000000000000000000600052603260045260246000fd5b90600052602060002001805461063c90611371565b80601f016020809104026020016040519081016040528092919081815260200182805461066890611371565b80156106b55780601f1061068a576101008083540402835291602001916106b5565b820191906000526020600020905b81548152906001019060200180831161069857829003601f168201915b50505050506002805490506109c0565b925060028381548110610701577f4e487b7100000000000000000000000000000000000000000000000000000000600052603260045260246000fd5b90600052602060002001805461071690611371565b80601f016020809104026020016040519081016040528092919081815260200182805461074290611371565b801561078f5780601f106107645761010080835404028352916020019161078f565b820191906000526020600020905b81548152906001019060200180831161077257829003601f168201915b50505050508482815181106107cd577f4e487b7100000000000000000000000000000000000000000000000000000000600052603260045260246000fd5b60200260200101819052506107e183610a02565b80806107ec906113a3565b9150506105ce565b506000600460006101000a81548160ff021916908315150217905550505090565b600160009054906101000a900473ffffffffffffffffffffffffffffffffffffffff1681565b806003819055506001600460006101000a81548160ff0219169083151502179055505050565b60007f000000000000000000000000000000000000000000000000000000000000000073ffffffffffffffffffffffffffffffffffffffff16634000aea07f0000000000000000000000000000000000000000000000000000000000000000848660006040516020016108d59291906110ea565b6040516020818303038152906040526040518463ffffffff1660e01b815260040161090293929190611054565b602060405180830381600087803b15801561091c57600080fd5b505af1158015610930573d6000803e3d6000fd5b505050506040513d601f19601f820116820180604052508101906109549190610cb9565b5060006109768460003060008089815260200190815260200160002054610b0c565b90506001600080868152602001908152602001600020546109979190611262565b600080868152602001908152602001600020819055506109b78482610b48565b91505092915050565b60008184846040516020016109d6929190611011565b6040516020818303038152906040528051906020012060001c6109f99190611400565b90509392505050565b60026001600280549050610a1691906112b8565b81548110610a4d577f4e487b7100000000000000000000000000000000000000000000000000000000600052603260045260246000fd5b9060005260206000200160028281548110610a91577f4e487b7100000000000000000000000000000000000000000000000000000000600052603260045260246000fd5b90600052602060002001908054610aa790611371565b610ab2929190610b7b565b506002805480610aeb577f4e487b7100000000000000000000000000000000000000000000000000000000600052603160045260246000fd5b600190038181906000526020600020016000610b079190610c08565b905550565b600084848484604051602001610b259493929190611113565b6040516020818303038152906040528051906020012060001c9050949350505050565b60008282604051602001610b5d929190610fe5565b60405160208183030381529060405280519060200120905092915050565b828054610b8790611371565b90600052602060002090601f016020900481019282610ba95760008555610bf7565b82601f10610bba5780548555610bf7565b82800160010185558215610bf757600052602060002091601f016020900482015b82811115610bf6578254825591600101919060010190610bdb565b5b509050610c049190610c48565b5090565b508054610c1490611371565b6000825580601f10610c265750610c45565b601f016020900490600052602060002090810190610c449190610c48565b5b50565b5b80821115610c61576000816000905550600101610c49565b5090565b600081519050610c74816114cf565b92915050565b600081359050610c89816114e6565b92915050565b600081359050610c9e816114fd565b92915050565b600081519050610cb3816114fd565b92915050565b600060208284031215610ccb57600080fd5b6000610cd984828501610c65565b91505092915050565b60008060408385031215610cf557600080fd5b6000610d0385828601610c7a565b9250506020610d1485828601610c8f565b9150509250929050565b600060208284031215610d3057600080fd5b6000610d3e84828501610c8f565b91505092915050565b600060208284031215610d5957600080fd5b6000610d6784828501610ca4565b91505092915050565b6000610d7c8383610e76565b905092915050565b610d8d816112ec565b82525050565b6000610d9e826111e5565b610da88185611213565b935083602082028501610dba856111d5565b8060005b85811015610df65784840389528151610dd78582610d70565b9450610de283611206565b925060208a01995050600181019050610dbe565b50829750879550505050505092915050565b610e11816112fe565b82525050565b610e208161130a565b82525050565b610e37610e328261130a565b6113ec565b82525050565b6000610e48826111f0565b610e528185611224565b9350610e6281856020860161133e565b610e6b816114be565b840191505092915050565b6000610e81826111fb565b610e8b8185611235565b9350610e9b81856020860161133e565b610ea4816114be565b840191505092915050565b6000610eba826111fb565b610ec48185611246565b9350610ed481856020860161133e565b610edd816114be565b840191505092915050565b6000610ef3826111fb565b610efd8185611257565b9350610f0d81856020860161133e565b80840191505092915050565b6000610f26602b83611246565b91507f4e6f7420656e6f756768204c494e4b202d2066696c6c20636f6e74726163742060008301527f77697468206661756365740000000000000000000000000000000000000000006020830152604082019050919050565b6000610f8c601f83611246565b91507f4f6e6c7920565246436f6f7264696e61746f722063616e2066756c66696c6c006000830152602082019050919050565b610fc881611334565b82525050565b610fdf610fda82611334565b6113f6565b82525050565b6000610ff18285610e26565b6020820191506110018284610fce565b6020820191508190509392505050565b600061101d8285610fce565b60208201915061102d8284610ee8565b91508190509392505050565b600060208201905061104e6000830184610d84565b92915050565b60006060820190506110696000830186610d84565b6110766020830185610fbf565b81810360408301526110888184610e3d565b9050949350505050565b600060208201905081810360008301526110ac8184610d93565b905092915050565b60006020820190506110c96000830184610e08565b92915050565b60006020820190506110e46000830184610e17565b92915050565b60006040820190506110ff6000830185610e17565b61110c6020830184610fbf565b9392505050565b60006080820190506111286000830187610e17565b6111356020830186610fbf565b6111426040830185610d84565b61114f6060830184610fbf565b95945050505050565b600060208201905081810360008301526111728184610eaf565b905092915050565b6000602082019050818103600083015261119381610f19565b9050919050565b600060208201905081810360008301526111b381610f7f565b9050919050565b60006020820190506111cf6000830184610fbf565b92915050565b6000819050602082019050919050565b600081519050919050565b600081519050919050565b600081519050919050565b6000602082019050919050565b600082825260208201905092915050565b600082825260208201905092915050565b600082825260208201905092915050565b600082825260208201905092915050565b600081905092915050565b600061126d82611334565b915061127883611334565b9250827fffffffffffffffffffffffffffffffffffffffffffffffffffffffffffffffff038211156112ad576112ac611431565b5b828201905092915050565b60006112c382611334565b91506112ce83611334565b9250828210156112e1576112e0611431565b5b828203905092915050565b60006112f782611314565b9050919050565b60008115159050919050565b6000819050919050565b600073ffffffffffffffffffffffffffffffffffffffff82169050919050565b6000819050919050565b60005b8381101561135c578082015181840152602081019050611341565b8381111561136b576000848401525b50505050565b6000600282049050600182168061138957607f821691505b6020821081141561139d5761139c61148f565b5b50919050565b60006113ae82611334565b91507fffffffffffffffffffffffffffffffffffffffffffffffffffffffffffffffff8214156113e1576113e0611431565b5b600182019050919050565b6000819050919050565b6000819050919050565b600061140b82611334565b915061141683611334565b92508261142657611425611460565b5b828206905092915050565b7f4e487b7100000000000000000000000000000000000000000000000000000000600052601160045260246000fd5b7f4e487b7100000000000000000000000000000000000000000000000000000000600052601260045260246000fd5b7f4e487b7100000000000000000000000000000000000000000000000000000000600052602260045260246000fd5b6000601f19601f8301169050919050565b6114d8816112fe565b81146114e357600080fd5b50565b6114ef8161130a565b81146114fa57600080fd5b50565b61150681611334565b811461151157600080fd5b5056fea2646970667358221220fbc7b4d236160dea394000d8ffd5f07ee320c09e084809ec5ac29664ed9c1a8d64736f6c63430008000033",
  "immutableReferences": {
    "337": [
      {
        "length": 32,
        "start": 974
      },
      {
        "length": 32,
        "start": 2149
      }
    ],
    "339": [
      {
        "length": 32,
        "start": 641
      },
      {
        "length": 32,
        "start": 2209
      }
    ]
  },
  "source": "//SPDX-License-Identifier: UNLICENSED\r\npragma solidity ^0.8.0;\r\npragma experimental ABIEncoderV2;\r\n//import \"github.com/smartcontractkit/chainlink/blob/develop/contracts/src/v0.8/VRFConsumerBase.sol\";\r\nimport \"../node_modules/@chainlink/contracts/src/v0.8/VRFConsumerBase.sol\";\r\n\r\ncontract CastLots is VRFConsumerBase{\r\n\r\n    address public admin;\r\n    string[] public initial_teams;\r\n    uint256 public randomResult;\r\n    bool public rand_available = false;\r\n    bytes32 internal keyHash;\r\n    uint256 internal fee;\r\n\r\n    constructor (string[] memory teams) VRFConsumerBase(0xb3dCcb4Cf7a26f6cf6B120Cf5A73875B7BBc655B, 0x01BE23585060835E02B77ef475b0Cc51aA1e0709) {\r\n        admin = msg.sender;\r\n        initial_teams = teams;\r\n        keyHash = 0x2ed0feb3e7fd2022120aa84fab1945545a9f2ffc9076fd6156fa96eaff4c1311;\r\n        fee = 0.1 * 10 ** 18;\r\n    }\r\n\r\n      function getRandomNumber() public returns (bytes32 requestId) {\r\n        require(LINK.balanceOf(address(this)) >= fee, \"Not enough LINK - fill contract with faucet\");\r\n        return requestRandomness(keyHash, fee);\r\n    }\r\n\r\n    function fulfillRandomness(bytes32 requestId, uint256 randomness) internal override {\r\n        randomResult = randomness;\r\n        rand_available = true;\r\n    }\r\n\r\n    function removeItem( uint index) internal {\r\n        initial_teams[index] = initial_teams[initial_teams.length - 1];\r\n        initial_teams.pop();\r\n    }\r\n\r\n    function randNumber (uint randomNumber, string memory safety, uint mod) private pure returns (uint) {\r\n        return uint(keccak256(abi.encodePacked(randomNumber,safety))) % mod;\r\n    }\r\n\r\n    function generateGroups () public returns (string[] memory final_teams) {\r\n        require(msg.sender == admin);\r\n        require(rand_available == true);\r\n\r\n        final_teams = new string[](initial_teams.length);\r\n\r\n        uint random;\r\n        uint initial_length = initial_teams.length;\r\n \r\n        for (uint i = 0; i < initial_length; i++) {\r\n\r\n            random = randNumber(randomResult, initial_teams[initial_teams.length - 1], initial_teams.length);\r\n            final_teams[i] = initial_teams[random];\r\n            removeItem(random);\r\n        }\r\n\r\n        rand_available = false;\r\n\r\n        return final_teams;\r\n    } \r\n\r\n    function getAllInitialTeams() public view returns (string[] memory) {\r\n        return initial_teams;\r\n    }\r\n}",
  "sourcePath": "C:\\Users\\casper\\Desktop\\lottery\\contracts\\CastLots.sol",
  "compiler": {
    "name": "solc",
    "version": "0.8.0+commit.c7dfd78e.Emscripten.clang"
  },
  "schemaVersion": "3.4.7",
  "updatedAt": "2022-04-30T18:47:46.952Z",
  "devdoc": {
    "kind": "dev",
    "methods": {},
    "version": 1
  },
  "userdoc": {
    "kind": "user",
    "methods": {},
    "version": 1
  }
}